:020000040000FA
:020000000528D1
:040002000034003492
:020008001829B5
:06000A00A001A101AD01FF
:10001000AE01AF01A501A601A70183160313F030BD
:100020008800870101308600091489108501831238
:1000300003138801860189018501831603170912BC
:100040008316031358308F008312031315309F005B
:100050009E01831603139F01831603132430980017
:100060008312031380309800831603130C30990019
:10007000831203138E018F0130309000831203131B
:10008000F0308B008C0183160313973081008316A8
:10009000031351308C008312031310142018842092
:1000A00020184E282D185F282E1865282F1868282C
:1000B0002108300203188914031C89104E282D10C2
:1000C000831203139F141F144E282E102F144E2832
:1000D0003008AB000A30AC00AA012B082C02031C2C
:1000E0007428AA0FAB026D282A08303E99000C1E16
:1000F00077282B08303E99000C1E7C280A30990086
:100100000C1E80282F104E28831203130E308804F3
:100110000808F0390319842804210808F039031964
:100120008428B52022080B3C031C08002208E72085
:10013000AB002B08FF3A03190800A01CB128A1202E
:1001400008002A08A1002A082B0DA10721082B0D61
:10015000A1072A08A1072B08A107F4202010A0104E
:1001600008002B08AA00A0148428A3010230A400D0
:100170000E30880424090E39F03888000000000091
:100180000808F039F03A0319DE280808F039F03A87
:10019000AB00A2018030AC002B082C05031DD62833
:1001A000A20AAC0C2C080319DE28CC282208AC00CB
:1001B000AC0D220723082C07A2000800A30A033075
:1001C0002302031DA40DB828FF30A20008008207F7
:1001D000FF340034FF340734083409340434053460
:1001E00006340134023403343008AB000A30AC006A
:1001F000A6012B02031C0129A60A2B082C02AB0026
:10020000F9282B08A50008000A30A800FA30A90038
:100210000000A90B0829A80B06290800C034F934EE
:10022000A434B034993492348234F8348034903425
:10023000F000030EF1000B192829831203138B1809
:100240003B290C1841290C1B44290C1A4C294F2915
:100250000B110510851027080319342925080E21D4
:1002600087008514A7014F2926080E218700051451
:100270000130A7004F298B10831203130130A00611
:100280004F290C102D144F290C13831203131E0831
:10029000B000F4202E144F290C122F104F29710E8C
:0802A000F100F00E700E0900E0
:00000001FF
