:020000040000FA
:020000000528D1
:040002000034003492
:020008001529B8
:06000A00A001A101A50107
:10001000A601A70183160313F03088000130860083
:10002000091489108501831203138801860189014F
:1000300085018316031709128316031358308F00A6
:100040008312031315309F009E01831603139F0133
:100050008316031324309800831203138030980012
:10006000831603130C309900831203138E018F0142
:100070003030900083120313F0308B008C01831614
:100080000313973081008316031351308C008312C1
:10009000031310142018802020184A2825185B28E4
:1000A000A51861282519642821082E02031889142F
:1000B000031C89104A282510831203139F141F1450
:1000C0004A28A51025154A282E08AC000A30AD0094
:1000D000AB012C082D02031C7028AB0FAC02692861
:1000E0002B08303E99000C1E73282C08303E9900D6
:1000F0000C1E78280A3099000C1E7C2825114A28ED
:10010000831203130E3088040808F039031980287D
:1001100000210808F03903198028B12022080B3C7F
:10012000031C08002208E320AC002C08FF3A031946
:100130000800A01CAD289D2008002B08A1002B085A
:100140002C0DA10721082C0DA1072B08A1072C08B5
:10015000A107F0202010A01008002C08AB00A0146C
:100160008028A3010230A4000E30880424090E392F
:10017000F0388800000000000808F039F03A031950
:10018000DA280808F039F03AAC00A2018030AD005E
:100190002C082D05031DD228A20AAD0C2D08031929
:1001A000DA28C8282208AD00AD0D220723082D0744
:1001B000A2000800A30A03302302031DA40DB428E3
:1001C000FF30A20008008207FF340034FF340734F8
:1001D0000834093404340534063401340234033459
:1001E0002E08AC000A30AD00A7012C02031CFD282C
:1001F000A70A2C082D02AC00F5282C08A600080040
:100200000A30A900FA30AA000000AA0B0429A90BA1
:10021000022908000207C034F934A434B0349934F8
:1002200092348234F83480349034F000030EF100BC
:100230000B192529831203138B1836290C183C2916
:100240000C1B3F290C1A47294A290B11861006114D
:10025000A519302926080A2185000615A5154A2961
:1002600027080A2185008614A5114A298B108312BC
:1002700003130130A0064A290C1025144A290C1337
:10028000831203131E08AE00F020A5144A290C1295
:0E02900025114A29710EF100F00E700E0900C2
:00000001FF
