:020000040000FA
:020000000528D1
:040002000034003492
:020008001629B7
:06000A00A001A101AD01FF
:10001000AE01AF01A501A601A70183160313F030BD
:100020008800870101308600091489108501831238
:1000300003138801860189018501831603170912BC
:100040008316031358308F008312031315309F005B
:100050008316031300309F00831603132430980087
:100060008312031380309800831603130C30990019
:1000700083160313073081008101831203138E015D
:100080008F013030900083120313F0308B000C137B
:100090000C120C1083160313011351308C008312C1
:1000A0000313101420187E2030082102031889142D
:1000B0002D1C60282D10831203139F141F14602819
:1000C0002E1C64282E102F142F1C52283008AB0031
:1000D0000A30AC00AA012B082C02031C7228AA0FBC
:1000E000AB026B282A08303E99000C1E75282B089D
:1000F000303E99000C1E7A282F10522883120313C9
:100100000F3088000808F03903197E2802210808FA
:10011000F03903197E28AE2022080F3C031C08008A
:100120002208E120AB00A01CAA282A08A100A10DEA
:10013000A10DA10DA10D2A08A107A1072A08AC0055
:10014000AC0DAC0DAC0DA1022B08A107F2202010C4
:10015000A01008002B08AA00A0147E28A3010130DB
:10016000A4000F30880024090F39F03888000000FF
:1001700000000808F039F03A0319D8280808F039C7
:10018000F03AAB00A2010130AC002B082C05031D96
:10019000D028A20AAC0D10302C02031CD828C52888
:1001A0002208AC00AC0DAC0D23082C07A2000800FF
:1001B000A30A04302302031DA40DB128FF30A200BE
:1001C00008008207FF340034FF34FF34073408345A
:1001D0000934FF34043405340634FF340134023466
:1001E0000334FF343008AB000A30AC00A6012B0208
:1001F000031CFF28A60A2B082C02AB00F7282B08AB
:10020000A50008000A30A800FA30A9000000A90BD8
:100210000629A80B04290800C034F934A434B034EA
:10022000993492348234F83480349034F000030EE0
:10023000F1000B192629831203138B1839290C1886
:100240003F290C1B42290C1A4A294D290B11051074
:10025000851027080319322925080C2187008514E9
:10026000A7014D2926080C21870005140130A7009D
:100270004D298B10831203130130A0064D290C1059
:100280002D144D290C13831203131E08B000F22005
:100290002E144D290C122F104D29710EF100F00E65
:0402A000700E0900D3
:00000001FF
