:020000040000FA
:020000000528D1
:040002000034003492
:02000800F228DC
:06000A00A001A101A50107
:10001000A601A70183160313F03088000130860083
:10002000091489108501831203138801860189014F
:1000300085018316031709128316031358308F00A6
:100040008312031315309F009E01831603139F0133
:100050008316031324309800831203138030980012
:10006000831603130C309900831203138E018F0142
:100070003030900083120313F0308B008C01831614
:100080000313943081008316031341308C008312D4
:100090000313101420185D2020184A28251857280B
:1000A00021082E0203188914031C89104A282510E0
:1000B000831203139F141F144A28831203130E3054
:1000C00088040808F03903195D28DD200808F03994
:1000D00003195D288E2022080B3C031C080022080F
:1000E000C020AC002C08FF3A03190800A01C8A2885
:1000F0007A2008002B08A1002B082C0DA10721084D
:100100002C0DA1072B08A1072C08A107CD2020103A
:10011000A01008002C08AB00A0145D28A301023039
:10012000A4000E30880424090E39F038880000003D
:1001300000000808F039F03A0319B7280808F03928
:10014000F03AAC00A2018030AD002C082D05031D53
:10015000AF28A20AAD0C2D080319B728A52822083C
:10016000AD00AD0D220723082D07A2000800A30A49
:1001700003302302031DA40D9128FF30A2000800C4
:100180008207FF340034FF34073408340934043460
:10019000053406340134023403342E08AC000A302E
:1001A000AD00A7012C02031CDA28A70A2C082D0297
:1001B000AC00D2282C08A60008000A30A900FA30AA
:1001C000AA000000AA0BE128A90BDF2808000207FB
:1001D0003F3406345B344F3466346D347D34073439
:1001E0007F346F34F000030EF1000B1902298312E3
:1001F00003138B1813290C1819290C1B22290C1A0C
:100200002A2939290B1186100611A5190D2926084E
:10021000E72085000615A51539292708E720850060
:100220008614A51139298B10831203130130A006FF
:1002300039290C10831603130C1683120313013093
:10024000A50639290C13831203131E08AE00CD2016
:10025000A5143929831203130C12831603130C12ED
:10026000831203132511831203132E08031D990013
:0C0270003929710EF100F00E700E09002B
:00000001FF
