:020000040000FA
:020000000528D1
:040002000034003492
:02000800F028DE
:06000A00A001A101A50107
:10001000A601A70183160313F03088000130860083
:10002000091489108501831203138801860189014F
:1000300085018316031709128316031358308F00A6
:100040008312031315309F009E01831603139F0133
:100050008316031324309800831203138030980012
:10006000831603130C309900831203138E018F0142
:100070003030900083120313F0308B008C01831614
:100080000313943081008316031341308C008312D4
:10009000031310148312031387118715201861208E
:1000A00020184E2825185B2821082E0203188914D1
:1000B000031C89104E282510831203139F141F144C
:1000C0004E28831203130E3088040808F0390319F0
:1000D0006128DB200808F039031961288D202208E7
:1000E0000B3C031C08002208BE20AC002C08FF3A81
:1000F00003190800A01C87287E2008002108F03979
:10010000A1002C08A104CB202010A01008002C086E
:100110002C0EF039A100A0146128A3010230A40024
:100120000E30880424090E39F038880000000808D1
:10013000F039F03A0319B5280808F039F03AAC0064
:10014000A2018030AD002C082D05031DAD28A20AA8
:10015000AD0C2D080319B528A3282208AD00AD0D5C
:10016000220723082D07A2000800A30A0330230258
:10017000031DA40D9028FF30A20008008207FF3461
:100180000034FF34073408340934043405340634A9
:100190000134023403342E08AC000A30AD00A7014C
:1001A0002C02031CD828A70A2C082D02AC00D0284A
:1001B0002C08A60008000A30A900FA30AA000000A6
:1001C000AA0BDF28A90BDD28080082073F3406347C
:1001D0005B344F3466346D347D3407347F346F3490
:1001E000F000030EF1000B190029831203138B1882
:1001F00011290C1817290C1B20290C1A282937291A
:100200000B1186100611A5190B292608E52085007B
:100210000615A51537292708E52085008614A511A0
:1002200037298B10831203130130A00637290C10D5
:10023000831603130C16831203130130A506372906
:100240000C13831203131E08AE00CB20A51437290C
:10025000831203130C12831603130C12831203135D
:100260002511831203132E08031D99003729710EDF
:08027000F100F00E700E090010
:02400E00F42399
:02401000FF3F70
:00000001FF
