:020000040000FA
:020000000528D1
:040002000034003492
:080008005C28831203131E3073
:10001000A700831603178801881689018316031326
:1000200085018801870189108914831203138501D2
:100030008801870183120313D9309F009E01831624
:1000400003139F01831203139F149F182528831203
:1000500003131E0883120313A300A60083120313C5
:100060002308831203132702031C46288312031359
:1000700008108810383085008814562088103F30CA
:1000800085000814562008108715222883120313B0
:1000900008108810763085008814562088100630A5
:1000A0008500081456200810871522283230A20037
:0A00B0000000A20B58280800090008
:02400E00E428A4
:02401000FF3E71
:00000001FF
